S00F000076315F76325F632E73726563A5
S11300000C9434000C9446000C9446000C94460066
S11300100C9446000C9446000C9446000C94460044
S11300200C9446000C9446000C9446000C94460034
S11300300C9446000C9446000C9446000C94460024
S11300400C9446000C9446000C9446000C94460014
S11300500C9446000C9446000C9446000C94460004
S11300600C9446000C94460011241FBECFEFD8E038
S1130070DEBFCDBF21E0A0E0B1E001C01D92AC30F5
S1130080B207E1F70E945D010C94C4010C940000D6
S113009080E680937C00EAE7F0E0808180648083DE
S11300A0808184FFFDCF8091790080930B0181E6EC
S11300B080937C00EAE7F0E0808180648083808123
S11300C084FFFDCF8091790080930A0182E68093BA
S11300D07C00EAE7F0E0808180648083808184FF93
S11300E0FDCF809179008093090183E680937C00A1
S11300F0EAE7F0E0808180648083808184FFFDCF23
S1130100809179008093080184E680937C00EAE77B
S1130110F0E0808180648083808184FFFDCF8091C2
S113012079008093070185E680937C00EAE7F0E09C
S1130130808180648083808184FFFDCF80917900F9
S11301408093060108951092800010928500109209
S1130150840083E080938100E4E8F0E08081918171
S11301608A3F9105D8F31092810081E086BB0895FF
S1130170CF93DF9300D0CDB7DEB79A83898389818B
S11301809A811816190664F40E94A30089819A8141
S113019001979A83898389819A8118161906A4F391
S11301A00F900F90DF91CF9108950F931F93CF93EA
S11301B0DF93DC01A41BB50BFD0122F4EE27FF271E
S11301C0EA1BFB0BEB01C41BD50BDE0122F4AA27AF
S11301D0BB27AC1BBD0B8C01061B170BE801DD23F1
S11301E024F4CC27DD27C01BD10B2C173D077CF052
S11301F02E173F0744F52A173B07BCF5680F791FF4
S1130200772314F46F5F7F4F759567952EC02E1773
S11302103F076CF02A173B0714F5BC01640F751FE8
S1130220772314F46F5F7F4F759567951EC02A1767
S11302303B07BCF0640F751F772314F46F5F7F4F87
S11302407595679512C02A173B0774F0860F971FA0
S1130250840F951F63E070E00E949C0106C0BA0100
S113026004C06FEF7FEF01C0BC01CB01DF91CF91E0
S11302701F910F910895841795078CF0281739075B
S113028074F064177507C4F026173707ACF0860FAF
S1130290971F99230CF401969595879508956417F3
S11302A075072CF0261737072CF0CB01089580E052
S11302B090E0089580E090E008958FEF8AB917B830
S11302C01092640087E880937A000E94480040916D
S11302D0090150E060910A0170E080910B0124E073
S11302E030E090E00E94D500EC01909305018093EA
S11302F004014091060150E06091070170E0809193
S1130300080123E030E090E00E94D50090930301BF
S11303108093020126E830E042E850E0BC01CE01BF
S11303200E943B0180930001909301018BB984E604
S113033090E00E94B800C9CF97FB072E16F40094F2
S113034007D077FD09D00E94B00107FC05D03EF428
S1130350909581959F4F0895709561957F4F08956D
S1130360AA1BBB1B51E107C0AA1FBB1FA617B707D7
S113037010F0A61BB70B881F991F5A95A9F78095F3
S10F03809095BC01CD010895F894FFCFC6
S9030000FC
